{
  "contractName": "Item2",
  "abi": [
    {
      "inputs": [],
      "stateMutability": "nonpayable",
      "type": "constructor"
    },
    {
      "inputs": [],
      "name": "owner",
      "outputs": [
        {
          "internalType": "address",
          "name": "",
          "type": "address"
        }
      ],
      "stateMutability": "view",
      "type": "function"
    },
    {
      "inputs": [
        {
          "internalType": "uint256",
          "name": "",
          "type": "uint256"
        }
      ],
      "name": "productData",
      "outputs": [
        {
          "internalType": "string",
          "name": "title",
          "type": "string"
        },
        {
          "internalType": "uint256",
          "name": "itemPrice",
          "type": "uint256"
        },
        {
          "internalType": "address payable",
          "name": "buyerAddress",
          "type": "address"
        },
        {
          "internalType": "bytes1",
          "name": "availableStatus",
          "type": "bytes1"
        }
      ],
      "stateMutability": "view",
      "type": "function"
    },
    {
      "inputs": [],
      "name": "trustedTP",
      "outputs": [
        {
          "internalType": "address",
          "name": "",
          "type": "address"
        }
      ],
      "stateMutability": "view",
      "type": "function"
    },
    {
      "inputs": [
        {
          "internalType": "string",
          "name": "_title",
          "type": "string"
        },
        {
          "internalType": "uint256",
          "name": "_price",
          "type": "uint256"
        }
      ],
      "name": "addItem",
      "outputs": [],
      "stateMutability": "nonpayable",
      "type": "function"
    },
    {
      "inputs": [],
      "name": "listItem",
      "outputs": [
        {
          "components": [
            {
              "internalType": "string",
              "name": "title",
              "type": "string"
            },
            {
              "internalType": "uint256",
              "name": "itemPrice",
              "type": "uint256"
            },
            {
              "internalType": "address payable",
              "name": "buyerAddress",
              "type": "address"
            },
            {
              "internalType": "bytes1",
              "name": "availableStatus",
              "type": "bytes1"
            }
          ],
          "internalType": "struct Item2.Product[]",
          "name": "",
          "type": "tuple[]"
        }
      ],
      "stateMutability": "view",
      "type": "function"
    },
    {
      "inputs": [
        {
          "internalType": "address",
          "name": "_ttp",
          "type": "address"
        }
      ],
      "name": "addTTP",
      "outputs": [],
      "stateMutability": "nonpayable",
      "type": "function"
    },
    {
      "inputs": [
        {
          "internalType": "string",
          "name": "_title",
          "type": "string"
        }
      ],
      "name": "buyItem",
      "outputs": [],
      "stateMutability": "payable",
      "type": "function"
    }
  ],
  "bytecode": "0x608060405234801561001057600080fd5b50336000806101000a81548173ffffffffffffffffffffffffffffffffffffffff021916908373ffffffffffffffffffffffffffffffffffffffff160217905550611234806100606000396000f3fe6080604052600436106100705760003560e01c806362d6bbdf1161004e57806362d6bbdf146100e55780638d06cdea1461010e5780638da5cb5b146101395780639f5ce9101461016457610070565b806313f19926146100755780635064fca6146100915780635b679c8f146100ba575b600080fd5b61008f600480360381019061008a9190610c3c565b6101a4565b005b34801561009d57600080fd5b506100b860048036038101906100b39190610ce3565b6104c0565b005b3480156100c657600080fd5b506100cf61055c565b6040516100dc9190610f32565b60405180910390f35b3480156100f157600080fd5b5061010c60048036038101906101079190610f80565b610708565b005b34801561011a57600080fd5b506101236108a0565b6040516101309190610feb565b60405180910390f35b34801561014557600080fd5b5061014e6108c6565b60405161015b9190610feb565b60405180910390f35b34801561017057600080fd5b5061018b60048036038101906101869190611006565b6108ea565b60405161019b94939291906110aa565b60405180910390f35b600060028054905090506101b66109df565b60005b828110156104ba57600281815481106101d5576101d46110f6565b5b90600052602060002090600302016040518060800160405290816000820180546101fe90611154565b80601f016020809104026020016040519081016040528092919081815260200182805461022a90611154565b80156102775780601f1061024c57610100808354040283529160200191610277565b820191906000526020600020905b81548152906001019060200180831161025a57829003601f168201915b50505050508152602001600182015481526020016002820160009054906101000a900473ffffffffffffffffffffffffffffffffffffffff1673ffffffffffffffffffffffffffffffffffffffff1673ffffffffffffffffffffffffffffffffffffffff1681526020016002820160149054906101000a900460f81b7effffffffffffffffffffffffffffffffffffffffffffffffffffffffffffff19167effffffffffffffffffffffffffffffffffffffffffffffffffffffffffffff1916815250509150838051906020012082600001518051906020012014156104a7577f410000000000000000000000000000000000000000000000000000000000000082606001517effffffffffffffffffffffffffffffffffffffffffffffffffffffffffffff1916146103a957600080fd5b81602001513410156103ba57600080fd5b33600282815481106103cf576103ce6110f6565b5b906000526020600020906003020160020160006101000a81548173ffffffffffffffffffffffffffffffffffffffff021916908373ffffffffffffffffffffffffffffffffffffffff1602179055503460028281548110610433576104326110f6565b5b9060005260206000209060030201600101819055507f50000000000000000000000000000000000000000000000000000000000000006002828154811061047d5761047c6110f6565b5b906000526020600020906003020160020160146101000a81548160ff021916908360f81c02179055505b80806104b2906111b5565b9150506101b9565b50505050565b60008054906101000a900473ffffffffffffffffffffffffffffffffffffffff1673ffffffffffffffffffffffffffffffffffffffff163373ffffffffffffffffffffffffffffffffffffffff161461051857600080fd5b80600160006101000a81548173ffffffffffffffffffffffffffffffffffffffff021916908373ffffffffffffffffffffffffffffffffffffffff16021790555050565b60606002805480602002602001604051908101604052809291908181526020016000905b828210156106ff57838290600052602060002090600302016040518060800160405290816000820180546105b390611154565b80601f01602080910402602001604051908101604052809291908181526020018280546105df90611154565b801561062c5780601f106106015761010080835404028352916020019161062c565b820191906000526020600020905b81548152906001019060200180831161060f57829003601f168201915b50505050508152602001600182015481526020016002820160009054906101000a900473ffffffffffffffffffffffffffffffffffffffff1673ffffffffffffffffffffffffffffffffffffffff1673ffffffffffffffffffffffffffffffffffffffff1681526020016002820160149054906101000a900460f81b7effffffffffffffffffffffffffffffffffffffffffffffffffffffffffffff19167effffffffffffffffffffffffffffffffffffffffffffffffffffffffffffff19168152505081526020019060010190610580565b50505050905090565b60008054906101000a900473ffffffffffffffffffffffffffffffffffffffff1673ffffffffffffffffffffffffffffffffffffffff163373ffffffffffffffffffffffffffffffffffffffff161461076057600080fd5b60006040518060800160405280848152602001838152602001600073ffffffffffffffffffffffffffffffffffffffff1681526020017f41000000000000000000000000000000000000000000000000000000000000007effffffffffffffffffffffffffffffffffffffffffffffffffffffffffffff1916815250905060028190806001815401808255809150506001900390600052602060002090600302016000909190919091506000820151816000019080519060200190610826929190610a3f565b506020820151816001015560408201518160020160006101000a81548173ffffffffffffffffffffffffffffffffffffffff021916908373ffffffffffffffffffffffffffffffffffffffff16021790555060608201518160020160146101000a81548160ff021916908360f81c02179055505050505050565b600160009054906101000a900473ffffffffffffffffffffffffffffffffffffffff1681565b60008054906101000a900473ffffffffffffffffffffffffffffffffffffffff1681565b600281815481106108fa57600080fd5b906000526020600020906003020160009150905080600001805461091d90611154565b80601f016020809104026020016040519081016040528092919081815260200182805461094990611154565b80156109965780601f1061096b57610100808354040283529160200191610996565b820191906000526020600020905b81548152906001019060200180831161097957829003601f168201915b5050505050908060010154908060020160009054906101000a900473ffffffffffffffffffffffffffffffffffffffff16908060020160149054906101000a900460f81b905084565b60405180608001604052806060815260200160008152602001600073ffffffffffffffffffffffffffffffffffffffff16815260200160007effffffffffffffffffffffffffffffffffffffffffffffffffffffffffffff191681525090565b828054610a4b90611154565b90600052602060002090601f016020900481019282610a6d5760008555610ab4565b82601f10610a8657805160ff1916838001178555610ab4565b82800160010185558215610ab4579182015b82811115610ab3578251825591602001919060010190610a98565b5b509050610ac19190610ac5565b5090565b5b80821115610ade576000816000905550600101610ac6565b5090565b6000604051905090565b600080fd5b600080fd5b600080fd5b600080fd5b6000601f19601f8301169050919050565b7f4e487b7100000000000000000000000000000000000000000000000000000000600052604160045260246000fd5b610b4982610b00565b810181811067ffffffffffffffff82111715610b6857610b67610b11565b5b80604052505050565b6000610b7b610ae2565b9050610b878282610b40565b919050565b600067ffffffffffffffff821115610ba757610ba6610b11565b5b610bb082610b00565b9050602081019050919050565b82818337600083830152505050565b6000610bdf610bda84610b8c565b610b71565b905082815260208101848484011115610bfb57610bfa610afb565b5b610c06848285610bbd565b509392505050565b600082601f830112610c2357610c22610af6565b5b8135610c33848260208601610bcc565b91505092915050565b600060208284031215610c5257610c51610aec565b5b600082013567ffffffffffffffff811115610c7057610c6f610af1565b5b610c7c84828501610c0e565b91505092915050565b600073ffffffffffffffffffffffffffffffffffffffff82169050919050565b6000610cb082610c85565b9050919050565b610cc081610ca5565b8114610ccb57600080fd5b50565b600081359050610cdd81610cb7565b92915050565b600060208284031215610cf957610cf8610aec565b5b6000610d0784828501610cce565b91505092915050565b600081519050919050565b600082825260208201905092915050565b6000819050602082019050919050565b600081519050919050565b600082825260208201905092915050565b60005b83811015610d76578082015181840152602081019050610d5b565b83811115610d85576000848401525b50505050565b6000610d9682610d3c565b610da08185610d47565b9350610db0818560208601610d58565b610db981610b00565b840191505092915050565b6000819050919050565b610dd781610dc4565b82525050565b6000610de882610c85565b9050919050565b610df881610ddd565b82525050565b60007fff0000000000000000000000000000000000000000000000000000000000000082169050919050565b610e3381610dfe565b82525050565b60006080830160008301518482036000860152610e568282610d8b565b9150506020830151610e6b6020860182610dce565b506040830151610e7e6040860182610def565b506060830151610e916060860182610e2a565b508091505092915050565b6000610ea88383610e39565b905092915050565b6000602082019050919050565b6000610ec882610d10565b610ed28185610d1b565b935083602082028501610ee485610d2c565b8060005b85811015610f205784840389528151610f018582610e9c565b9450610f0c83610eb0565b925060208a01995050600181019050610ee8565b50829750879550505050505092915050565b60006020820190508181036000830152610f4c8184610ebd565b905092915050565b610f5d81610dc4565b8114610f6857600080fd5b50565b600081359050610f7a81610f54565b92915050565b60008060408385031215610f9757610f96610aec565b5b600083013567ffffffffffffffff811115610fb557610fb4610af1565b5b610fc185828601610c0e565b9250506020610fd285828601610f6b565b9150509250929050565b610fe581610ca5565b82525050565b60006020820190506110006000830184610fdc565b92915050565b60006020828403121561101c5761101b610aec565b5b600061102a84828501610f6b565b91505092915050565b600082825260208201905092915050565b600061104f82610d3c565b6110598185611033565b9350611069818560208601610d58565b61107281610b00565b840191505092915050565b61108681610dc4565b82525050565b61109581610ddd565b82525050565b6110a481610dfe565b82525050565b600060808201905081810360008301526110c48187611044565b90506110d3602083018661107d565b6110e0604083018561108c565b6110ed606083018461109b565b95945050505050565b7f4e487b7100000000000000000000000000000000000000000000000000000000600052603260045260246000fd5b7f4e487b7100000000000000000000000000000000000000000000000000000000600052602260045260246000fd5b6000600282049050600182168061116c57607f821691505b602082108114156111805761117f611125565b5b50919050565b7f4e487b7100000000000000000000000000000000000000000000000000000000600052601160045260246000fd5b60006111c082610dc4565b91507fffffffffffffffffffffffffffffffffffffffffffffffffffffffffffffffff8214156111f3576111f2611186565b5b60018201905091905056fea26469706673582212203a3e026eef7156b0bc755d3544e5ef4730ac82f29ca5271a34e8b0257eb51fa164736f6c634300080a0033",
  "immutableReferences": {},
  "source": "// SPDX-License-Identifier: MIT\r\npragma solidity >=0.4.22 <0.9.0;\r\n\r\n\r\n\r\n\r\ncontract Item2 {\r\n    struct Product{\r\n    string title ;\r\n    uint itemPrice ;\r\n    address payable buyerAddress ;\r\n    bytes1 availableStatus ; //A,P,D,R,C,E\r\n    }\r\n\r\n    address public owner;\r\n    address public trustedTP;\r\n    Product[] public productData;  //product Array -dynamic  //can this be map\r\n\r\n    constructor () {\r\n        owner=msg.sender; //owner\r\n    }\r\n\r\n    function addItem(string memory _title,uint _price) public{\r\n        require(msg.sender==owner);\r\n        Product memory temp=Product(_title,_price,payable(0),'A');  \r\n        productData.push(temp);\r\n    }\r\n\r\n    function listItem() public view returns(Product[] memory) {\r\n        return  productData;\r\n    }\r\n\r\n    function addTTP(address _ttp) public{\r\n        require(msg.sender==owner); //only called by owner\r\n        trustedTP=_ttp; //add TTP\r\n    }\r\n\r\n    function buyItem(string memory _title) public payable{\r\n        uint length=productData.length;\r\n        Product memory temp;\r\n        for(uint i=0;i<length;i++){\r\n            temp=productData[i];\r\n            if(keccak256(bytes(temp.title))==keccak256(bytes(_title))){\r\n                require(temp.availableStatus=='A');\r\n                require(msg.value>=temp.itemPrice);\r\n                productData[i].buyerAddress=payable(msg.sender);\r\n                productData[i].itemPrice=msg.value;\r\n                productData[i].availableStatus='P';\r\n            }\r\n        }\r\n    }\r\n\r\n\r\n\r\n}",
  "sourcePath": "F:\\product\\contracts\\Item2.sol",
  "compiler": {
    "name": "solc",
    "version": "0.8.10+commit.fc410830.Emscripten.clang"
  },
  "schemaVersion": "3.4.3",
  "updatedAt": "2021-12-11T22:42:47.658Z",
  "devdoc": {
    "kind": "dev",
    "methods": {},
    "version": 1
  },
  "userdoc": {
    "kind": "user",
    "methods": {},
    "version": 1
  }
}