{
  "contractName": "Item3",
  "abi": [
    {
      "inputs": [],
      "stateMutability": "nonpayable",
      "type": "constructor"
    },
    {
      "inputs": [],
      "name": "owner",
      "outputs": [
        {
          "internalType": "address payable",
          "name": "",
          "type": "address"
        }
      ],
      "stateMutability": "view",
      "type": "function",
      "constant": true
    },
    {
      "inputs": [
        {
          "internalType": "uint256",
          "name": "",
          "type": "uint256"
        }
      ],
      "name": "productData",
      "outputs": [
        {
          "internalType": "string",
          "name": "title",
          "type": "string"
        },
        {
          "internalType": "uint256",
          "name": "itemPrice",
          "type": "uint256"
        },
        {
          "internalType": "address payable",
          "name": "buyerAddress",
          "type": "address"
        },
        {
          "internalType": "bytes1",
          "name": "availableStatus",
          "type": "bytes1"
        }
      ],
      "stateMutability": "view",
      "type": "function",
      "constant": true
    },
    {
      "inputs": [],
      "name": "trustedTP",
      "outputs": [
        {
          "internalType": "address",
          "name": "",
          "type": "address"
        }
      ],
      "stateMutability": "view",
      "type": "function",
      "constant": true
    },
    {
      "inputs": [
        {
          "internalType": "string",
          "name": "_title",
          "type": "string"
        },
        {
          "internalType": "uint256",
          "name": "_price",
          "type": "uint256"
        }
      ],
      "name": "addItem",
      "outputs": [],
      "stateMutability": "nonpayable",
      "type": "function"
    },
    {
      "inputs": [],
      "name": "listItem",
      "outputs": [
        {
          "components": [
            {
              "internalType": "string",
              "name": "title",
              "type": "string"
            },
            {
              "internalType": "uint256",
              "name": "itemPrice",
              "type": "uint256"
            },
            {
              "internalType": "address payable",
              "name": "buyerAddress",
              "type": "address"
            },
            {
              "internalType": "bytes1",
              "name": "availableStatus",
              "type": "bytes1"
            }
          ],
          "internalType": "struct Item3.Product[]",
          "name": "",
          "type": "tuple[]"
        }
      ],
      "stateMutability": "view",
      "type": "function",
      "constant": true
    },
    {
      "inputs": [
        {
          "internalType": "address",
          "name": "_ttp",
          "type": "address"
        }
      ],
      "name": "addTTP",
      "outputs": [],
      "stateMutability": "nonpayable",
      "type": "function"
    },
    {
      "inputs": [
        {
          "internalType": "string",
          "name": "_title",
          "type": "string"
        }
      ],
      "name": "buyItem",
      "outputs": [],
      "stateMutability": "payable",
      "type": "function",
      "payable": true
    },
    {
      "inputs": [
        {
          "internalType": "string",
          "name": "_title",
          "type": "string"
        },
        {
          "internalType": "bool",
          "name": "_flag",
          "type": "bool"
        }
      ],
      "name": "confirmPurchase",
      "outputs": [],
      "stateMutability": "nonpayable",
      "type": "function"
    },
    {
      "inputs": [
        {
          "internalType": "string",
          "name": "_title",
          "type": "string"
        },
        {
          "internalType": "bytes1",
          "name": "_status",
          "type": "bytes1"
        }
      ],
      "name": "handleDispute",
      "outputs": [],
      "stateMutability": "nonpayable",
      "type": "function"
    },
    {
      "inputs": [
        {
          "internalType": "string",
          "name": "_title",
          "type": "string"
        }
      ],
      "name": "receivePayment",
      "outputs": [],
      "stateMutability": "nonpayable",
      "type": "function"
    }
  ],
  "bytecode": "0x608060405234801561001057600080fd5b50336000806101000a81548173ffffffffffffffffffffffffffffffffffffffff021916908373ffffffffffffffffffffffffffffffffffffffff160217905550611dc0806100606000396000f3fe6080604052600436106100915760003560e01c806362d6bbdf1161005957806362d6bbdf146101585780638d06cdea146101815780638da5cb5b146101ac5780639f5ce910146101d7578063d30c5f601461021757610091565b80630fa3b9dc1461009657806313f19926146100bf578063214270aa146100db5780635064fca6146101045780635b679c8f1461012d575b600080fd5b3480156100a257600080fd5b506100bd60048036038101906100b891906116c9565b610240565b005b6100d960048036038101906100d49190611725565b610573565b005b3480156100e757600080fd5b5061010260048036038101906100fd9190611725565b61088f565b005b34801561011057600080fd5b5061012b600480360381019061012691906117cc565b610c55565b005b34801561013957600080fd5b50610142610cf1565b60405161014f9190611a1b565b60405180910390f35b34801561016457600080fd5b5061017f600480360381019061017a9190611a69565b610e9d565b005b34801561018d57600080fd5b50610196611035565b6040516101a39190611ad4565b60405180910390f35b3480156101b857600080fd5b506101c161105b565b6040516101ce9190611afe565b60405180910390f35b3480156101e357600080fd5b506101fe60048036038101906101f99190611b19565b61107f565b60405161020e9493929190611bae565b60405180910390f35b34801561022357600080fd5b5061023e60048036038101906102399190611c26565b611174565b005b60006002805490509050610252611434565b60005b8281101561056b576002818154811061027157610270611c82565b5b906000526020600020906003020160405180608001604052908160008201805461029a90611ce0565b80601f01602080910402602001604051908101604052809291908181526020018280546102c690611ce0565b80156103135780601f106102e857610100808354040283529160200191610313565b820191906000526020600020905b8154815290600101906020018083116102f657829003601f168201915b50505050508152602001600182015481526020016002820160009054906101000a900473ffffffffffffffffffffffffffffffffffffffff1673ffffffffffffffffffffffffffffffffffffffff1673ffffffffffffffffffffffffffffffffffffffff1681526020016002820160149054906101000a900460f81b7effffffffffffffffffffffffffffffffffffffffffffffffffffffffffffff19167effffffffffffffffffffffffffffffffffffffffffffffffffffffffffffff191681525050915084805190602001208260000151805190602001201415610558577f500000000000000000000000000000000000000000000000000000000000000082606001517effffffffffffffffffffffffffffffffffffffffffffffffffffffffffffff19161461044557600080fd5b3373ffffffffffffffffffffffffffffffffffffffff16826040015173ffffffffffffffffffffffffffffffffffffffff161461048157600080fd5b6001151584151514156104f1577f4300000000000000000000000000000000000000000000000000000000000000600282815481106104c3576104c2611c82565b5b906000526020600020906003020160020160146101000a81548160ff021916908360f81c0217905550610550565b7f44000000000000000000000000000000000000000000000000000000000000006002828154811061052657610525611c82565b5b906000526020600020906003020160020160146101000a81548160ff021916908360f81c02179055505b50505061056f565b808061056390611d41565b915050610255565b5050505b5050565b60006002805490509050610585611434565b60005b8281101561088957600281815481106105a4576105a3611c82565b5b90600052602060002090600302016040518060800160405290816000820180546105cd90611ce0565b80601f01602080910402602001604051908101604052809291908181526020018280546105f990611ce0565b80156106465780601f1061061b57610100808354040283529160200191610646565b820191906000526020600020905b81548152906001019060200180831161062957829003601f168201915b50505050508152602001600182015481526020016002820160009054906101000a900473ffffffffffffffffffffffffffffffffffffffff1673ffffffffffffffffffffffffffffffffffffffff1673ffffffffffffffffffffffffffffffffffffffff1681526020016002820160149054906101000a900460f81b7effffffffffffffffffffffffffffffffffffffffffffffffffffffffffffff19167effffffffffffffffffffffffffffffffffffffffffffffffffffffffffffff191681525050915083805190602001208260000151805190602001201415610876577f410000000000000000000000000000000000000000000000000000000000000082606001517effffffffffffffffffffffffffffffffffffffffffffffffffffffffffffff19161461077857600080fd5b816020015134101561078957600080fd5b336002828154811061079e5761079d611c82565b5b906000526020600020906003020160020160006101000a81548173ffffffffffffffffffffffffffffffffffffffff021916908373ffffffffffffffffffffffffffffffffffffffff160217905550346002828154811061080257610801611c82565b5b9060005260206000209060030201600101819055507f50000000000000000000000000000000000000000000000000000000000000006002828154811061084c5761084b611c82565b5b906000526020600020906003020160020160146101000a81548160ff021916908360f81c02179055505b808061088190611d41565b915050610588565b50505050565b600060028054905090506108a1611434565b60005b82811015610c4e57600281815481106108c0576108bf611c82565b5b90600052602060002090600302016040518060800160405290816000820180546108e990611ce0565b80601f016020809104026020016040519081016040528092919081815260200182805461091590611ce0565b80156109625780601f1061093757610100808354040283529160200191610962565b820191906000526020600020905b81548152906001019060200180831161094557829003601f168201915b50505050508152602001600182015481526020016002820160009054906101000a900473ffffffffffffffffffffffffffffffffffffffff1673ffffffffffffffffffffffffffffffffffffffff1673ffffffffffffffffffffffffffffffffffffffff1681526020016002820160149054906101000a900460f81b7effffffffffffffffffffffffffffffffffffffffffffffffffffffffffffff19167effffffffffffffffffffffffffffffffffffffffffffffffffffffffffffff191681525050915083805190602001208260000151805190602001201415610c3b577f430000000000000000000000000000000000000000000000000000000000000082606001517effffffffffffffffffffffffffffffffffffffffffffffffffffffffffffff19161415610b58573373ffffffffffffffffffffffffffffffffffffffff1660008054906101000a900473ffffffffffffffffffffffffffffffffffffffff1673ffffffffffffffffffffffffffffffffffffffff1614610ae857600080fd5b60008054906101000a900473ffffffffffffffffffffffffffffffffffffffff1673ffffffffffffffffffffffffffffffffffffffff166108fc83602001519081150290604051600060405180830381858888f19350505050158015610b52573d6000803e3d6000fd5b50610c33565b7f520000000000000000000000000000000000000000000000000000000000000082606001517effffffffffffffffffffffffffffffffffffffffffffffffffffffffffffff19161415610c32573373ffffffffffffffffffffffffffffffffffffffff16826040015173ffffffffffffffffffffffffffffffffffffffff1614610be257600080fd5b816040015173ffffffffffffffffffffffffffffffffffffffff166108fc83602001519081150290604051600060405180830381858888f19350505050158015610c30573d6000803e3d6000fd5b505b5b505050610c52565b8080610c4690611d41565b9150506108a4565b5050505b50565b60008054906101000a900473ffffffffffffffffffffffffffffffffffffffff1673ffffffffffffffffffffffffffffffffffffffff163373ffffffffffffffffffffffffffffffffffffffff1614610cad57600080fd5b80600160006101000a81548173ffffffffffffffffffffffffffffffffffffffff021916908373ffffffffffffffffffffffffffffffffffffffff16021790555050565b60606002805480602002602001604051908101604052809291908181526020016000905b82821015610e945783829060005260206000209060030201604051806080016040529081600082018054610d4890611ce0565b80601f0160208091040260200160405190810160405280929190818152602001828054610d7490611ce0565b8015610dc15780601f10610d9657610100808354040283529160200191610dc1565b820191906000526020600020905b815481529060010190602001808311610da457829003601f168201915b50505050508152602001600182015481526020016002820160009054906101000a900473ffffffffffffffffffffffffffffffffffffffff1673ffffffffffffffffffffffffffffffffffffffff1673ffffffffffffffffffffffffffffffffffffffff1681526020016002820160149054906101000a900460f81b7effffffffffffffffffffffffffffffffffffffffffffffffffffffffffffff19167effffffffffffffffffffffffffffffffffffffffffffffffffffffffffffff19168152505081526020019060010190610d15565b50505050905090565b60008054906101000a900473ffffffffffffffffffffffffffffffffffffffff1673ffffffffffffffffffffffffffffffffffffffff163373ffffffffffffffffffffffffffffffffffffffff1614610ef557600080fd5b60006040518060800160405280848152602001838152602001600073ffffffffffffffffffffffffffffffffffffffff1681526020017f41000000000000000000000000000000000000000000000000000000000000007effffffffffffffffffffffffffffffffffffffffffffffffffffffffffffff1916815250905060028190806001815401808255809150506001900390600052602060002090600302016000909190919091506000820151816000019080519060200190610fbb929190611494565b506020820151816001015560408201518160020160006101000a81548173ffffffffffffffffffffffffffffffffffffffff021916908373ffffffffffffffffffffffffffffffffffffffff16021790555060608201518160020160146101000a81548160ff021916908360f81c02179055505050505050565b600160009054906101000a900473ffffffffffffffffffffffffffffffffffffffff1681565b60008054906101000a900473ffffffffffffffffffffffffffffffffffffffff1681565b6002818154811061108f57600080fd5b90600052602060002090600302016000915090508060000180546110b290611ce0565b80601f01602080910402602001604051908101604052809291908181526020018280546110de90611ce0565b801561112b5780601f106111005761010080835404028352916020019161112b565b820191906000526020600020905b81548152906001019060200180831161110e57829003601f168201915b5050505050908060010154908060020160009054906101000a900473ffffffffffffffffffffffffffffffffffffffff16908060020160149054906101000a900460f81b905084565b60006002805490509050611186611434565b60005b8281101561142c57600281815481106111a5576111a4611c82565b5b90600052602060002090600302016040518060800160405290816000820180546111ce90611ce0565b80601f01602080910402602001604051908101604052809291908181526020018280546111fa90611ce0565b80156112475780601f1061121c57610100808354040283529160200191611247565b820191906000526020600020905b81548152906001019060200180831161122a57829003601f168201915b50505050508152602001600182015481526020016002820160009054906101000a900473ffffffffffffffffffffffffffffffffffffffff1673ffffffffffffffffffffffffffffffffffffffff1673ffffffffffffffffffffffffffffffffffffffff1681526020016002820160149054906101000a900460f81b7effffffffffffffffffffffffffffffffffffffffffffffffffffffffffffff19167effffffffffffffffffffffffffffffffffffffffffffffffffffffffffffff191681525050915084805190602001208260000151805190602001201415611419577f440000000000000000000000000000000000000000000000000000000000000082606001517effffffffffffffffffffffffffffffffffffffffffffffffffffffffffffff19161461137957600080fd5b3373ffffffffffffffffffffffffffffffffffffffff16600160009054906101000a900473ffffffffffffffffffffffffffffffffffffffff1673ffffffffffffffffffffffffffffffffffffffff16146113d357600080fd5b83600282815481106113e8576113e7611c82565b5b906000526020600020906003020160020160146101000a81548160ff021916908360f81c0217905550505050611430565b808061142490611d41565b915050611189565b5050505b5050565b60405180608001604052806060815260200160008152602001600073ffffffffffffffffffffffffffffffffffffffff16815260200160007effffffffffffffffffffffffffffffffffffffffffffffffffffffffffffff191681525090565b8280546114a090611ce0565b90600052602060002090601f0160209004810192826114c25760008555611509565b82601f106114db57805160ff1916838001178555611509565b82800160010185558215611509579182015b828111156115085782518255916020019190600101906114ed565b5b509050611516919061151a565b5090565b5b8082111561153357600081600090555060010161151b565b5090565b6000604051905090565b600080fd5b600080fd5b600080fd5b600080fd5b6000601f19601f8301169050919050565b7f4e487b7100000000000000000000000000000000000000000000000000000000600052604160045260246000fd5b61159e82611555565b810181811067ffffffffffffffff821117156115bd576115bc611566565b5b80604052505050565b60006115d0611537565b90506115dc8282611595565b919050565b600067ffffffffffffffff8211156115fc576115fb611566565b5b61160582611555565b9050602081019050919050565b82818337600083830152505050565b600061163461162f846115e1565b6115c6565b9050828152602081018484840111156116505761164f611550565b5b61165b848285611612565b509392505050565b600082601f8301126116785761167761154b565b5b8135611688848260208601611621565b91505092915050565b60008115159050919050565b6116a681611691565b81146116b157600080fd5b50565b6000813590506116c38161169d565b92915050565b600080604083850312156116e0576116df611541565b5b600083013567ffffffffffffffff8111156116fe576116fd611546565b5b61170a85828601611663565b925050602061171b858286016116b4565b9150509250929050565b60006020828403121561173b5761173a611541565b5b600082013567ffffffffffffffff81111561175957611758611546565b5b61176584828501611663565b91505092915050565b600073ffffffffffffffffffffffffffffffffffffffff82169050919050565b60006117998261176e565b9050919050565b6117a98161178e565b81146117b457600080fd5b50565b6000813590506117c6816117a0565b92915050565b6000602082840312156117e2576117e1611541565b5b60006117f0848285016117b7565b91505092915050565b600081519050919050565b600082825260208201905092915050565b6000819050602082019050919050565b600081519050919050565b600082825260208201905092915050565b60005b8381101561185f578082015181840152602081019050611844565b8381111561186e576000848401525b50505050565b600061187f82611825565b6118898185611830565b9350611899818560208601611841565b6118a281611555565b840191505092915050565b6000819050919050565b6118c0816118ad565b82525050565b60006118d18261176e565b9050919050565b6118e1816118c6565b82525050565b60007fff0000000000000000000000000000000000000000000000000000000000000082169050919050565b61191c816118e7565b82525050565b6000608083016000830151848203600086015261193f8282611874565b915050602083015161195460208601826118b7565b50604083015161196760408601826118d8565b50606083015161197a6060860182611913565b508091505092915050565b60006119918383611922565b905092915050565b6000602082019050919050565b60006119b1826117f9565b6119bb8185611804565b9350836020820285016119cd85611815565b8060005b85811015611a0957848403895281516119ea8582611985565b94506119f583611999565b925060208a019950506001810190506119d1565b50829750879550505050505092915050565b60006020820190508181036000830152611a3581846119a6565b905092915050565b611a46816118ad565b8114611a5157600080fd5b50565b600081359050611a6381611a3d565b92915050565b60008060408385031215611a8057611a7f611541565b5b600083013567ffffffffffffffff811115611a9e57611a9d611546565b5b611aaa85828601611663565b9250506020611abb85828601611a54565b9150509250929050565b611ace8161178e565b82525050565b6000602082019050611ae96000830184611ac5565b92915050565b611af8816118c6565b82525050565b6000602082019050611b136000830184611aef565b92915050565b600060208284031215611b2f57611b2e611541565b5b6000611b3d84828501611a54565b91505092915050565b600082825260208201905092915050565b6000611b6282611825565b611b6c8185611b46565b9350611b7c818560208601611841565b611b8581611555565b840191505092915050565b611b99816118ad565b82525050565b611ba8816118e7565b82525050565b60006080820190508181036000830152611bc88187611b57565b9050611bd76020830186611b90565b611be46040830185611aef565b611bf16060830184611b9f565b95945050505050565b611c03816118e7565b8114611c0e57600080fd5b50565b600081359050611c2081611bfa565b92915050565b60008060408385031215611c3d57611c3c611541565b5b600083013567ffffffffffffffff811115611c5b57611c5a611546565b5b611c6785828601611663565b9250506020611c7885828601611c11565b9150509250929050565b7f4e487b7100000000000000000000000000000000000000000000000000000000600052603260045260246000fd5b7f4e487b7100000000000000000000000000000000000000000000000000000000600052602260045260246000fd5b60006002820490506001821680611cf857607f821691505b60208210811415611d0c57611d0b611cb1565b5b50919050565b7f4e487b7100000000000000000000000000000000000000000000000000000000600052601160045260246000fd5b6000611d4c826118ad565b91507fffffffffffffffffffffffffffffffffffffffffffffffffffffffffffffffff821415611d7f57611d7e611d12565b5b60018201905091905056fea26469706673582212202c7fe3598072ccf5137635ff0a493c750266b73588649481c0e6c1d5ffc19d2164736f6c634300080a0033",
  "immutableReferences": {},
  "source": "// SPDX-License-Identifier: MIT\r\npragma solidity >=0.4.22 <0.9.0;\r\n\r\n\r\n\r\n\r\ncontract Item3 {\r\n    struct Product{\r\n    string title ;\r\n    uint itemPrice ;\r\n    address payable buyerAddress ;\r\n    bytes1 availableStatus ; //A,P,D,R,C,E\r\n    }\r\n\r\n    address payable public owner;\r\n    address public trustedTP;\r\n    Product[] public productData;  //product Array -dynamic  //can this be map\r\n\r\n    constructor () {\r\n        owner=payable(msg.sender); //owner\r\n    }\r\n\r\n    function addItem(string memory _title,uint _price) public{\r\n        require(msg.sender==owner);\r\n        Product memory temp=Product(_title,_price,payable(0),'A');  \r\n        productData.push(temp);\r\n    }\r\n\r\n    function listItem() public view returns(Product[] memory) {\r\n        return  productData;\r\n    }\r\n\r\n    function addTTP(address _ttp) public{\r\n        require(msg.sender==owner); //only called by owner\r\n        trustedTP=_ttp; //add TTP\r\n    }\r\n\r\n    function buyItem(string memory _title) public payable{\r\n        uint length=productData.length;\r\n        Product memory temp;\r\n        for(uint i=0;i<length;i++){\r\n            temp=productData[i];\r\n            if(keccak256(bytes(temp.title))==keccak256(bytes(_title))){\r\n                require(temp.availableStatus=='A');\r\n                require(msg.value>=temp.itemPrice);\r\n                productData[i].buyerAddress=payable(msg.sender);\r\n                productData[i].itemPrice=msg.value;\r\n                productData[i].availableStatus='P';\r\n            }\r\n        }\r\n    }\r\n\r\n    function confirmPurchase(string memory _title,bool _flag) public{\r\n        uint length=productData.length;\r\n        Product memory temp;\r\n        for(uint i=0;i<length;i++){\r\n            temp=productData[i];\r\n            if(keccak256(bytes(temp.title))==keccak256(bytes(_title))){\r\n                require(temp.availableStatus=='P');\r\n                require(temp.buyerAddress==msg.sender);\r\n                if(_flag==true){\r\n                    productData[i].availableStatus='C';\r\n                }else{\r\n                    productData[i].availableStatus='D';\r\n                }\r\n                return;\r\n            }\r\n        }\r\n    }\r\n\r\n    function handleDispute(string memory _title,bytes1 _status) public{\r\n        uint length=productData.length;\r\n        Product memory temp;\r\n        for(uint i=0;i<length;i++){\r\n            temp=productData[i];\r\n            if(keccak256(bytes(temp.title))==keccak256(bytes(_title))){\r\n                require(temp.availableStatus=='D');\r\n                require(trustedTP==msg.sender);\r\n                productData[i].availableStatus=_status;\r\n                return;\r\n            }\r\n        }\r\n    }\r\n\r\n    function receivePayment(string memory _title) public{\r\n        uint length=productData.length;\r\n        Product memory temp;\r\n        for(uint i=0;i<length;i++){\r\n            temp=productData[i];\r\n            if(keccak256(bytes(temp.title))==keccak256(bytes(_title))){\r\n                if(temp.availableStatus=='C'){\r\n                    require(owner==msg.sender);\r\n                    owner.transfer(temp.itemPrice);\r\n                }else if(temp.availableStatus=='R'){\r\n                    require(temp.buyerAddress==msg.sender);\r\n                    temp.buyerAddress.transfer(temp.itemPrice);\r\n                }\r\n                return;\r\n            }\r\n        }\r\n    }\r\n\r\n\r\n\r\n\r\n}",
  "sourcePath": "F:\\product\\contracts\\Item3.sol",
  "compiler": {
    "name": "solc",
    "version": "0.8.10+commit.fc410830.Emscripten.clang"
  },
  "schemaVersion": "3.4.3",
  "updatedAt": "2021-12-11T22:43:04.337Z",
  "networkType": "ethereum",
  "devdoc": {
    "kind": "dev",
    "methods": {},
    "version": 1
  },
  "userdoc": {
    "kind": "user",
    "methods": {},
    "version": 1
  }
}