{
  "contractName": "Item",
  "abi": [
    {
      "inputs": [],
      "stateMutability": "nonpayable",
      "type": "constructor"
    },
    {
      "inputs": [
        {
          "internalType": "string",
          "name": "_title",
          "type": "string"
        },
        {
          "internalType": "uint256",
          "name": "_price",
          "type": "uint256"
        }
      ],
      "name": "addItem",
      "outputs": [],
      "stateMutability": "nonpayable",
      "type": "function"
    },
    {
      "inputs": [],
      "name": "getItem",
      "outputs": [
        {
          "components": [
            {
              "internalType": "string",
              "name": "title",
              "type": "string"
            },
            {
              "internalType": "uint256",
              "name": "itemPrice",
              "type": "uint256"
            },
            {
              "internalType": "address payable",
              "name": "buyerAddress",
              "type": "address"
            },
            {
              "internalType": "bytes1",
              "name": "availableStatus",
              "type": "bytes1"
            }
          ],
          "internalType": "struct Item.Product[]",
          "name": "",
          "type": "tuple[]"
        }
      ],
      "stateMutability": "view",
      "type": "function"
    }
  ],
  "bytecode": "0x608060405234801561001057600080fd5b50336000806101000a81548173ffffffffffffffffffffffffffffffffffffffff021916908373ffffffffffffffffffffffffffffffffffffffff1602179055506108e1806100606000396000f3fe608060405234801561001057600080fd5b50600436106100365760003560e01c806362d6bbdf1461003b578063c412eaba14610057575b600080fd5b61005560048036038101906100509190610594565b610075565b005b61005f6101b5565b60405161006c9190610828565b60405180910390f35b60006040518060800160405280848152602001838152602001600073ffffffffffffffffffffffffffffffffffffffff1681526020017f41000000000000000000000000000000000000000000000000000000000000007effffffffffffffffffffffffffffffffffffffffffffffffffffffffffffff191681525090506001819080600181540180825580915050600190039060005260206000209060030201600090919091909150600082015181600001908051906020019061013b929190610361565b506020820151816001015560408201518160020160006101000a81548173ffffffffffffffffffffffffffffffffffffffff021916908373ffffffffffffffffffffffffffffffffffffffff16021790555060608201518160020160146101000a81548160ff021916908360f81c02179055505050505050565b60606001805480602002602001604051908101604052809291908181526020016000905b82821015610358578382906000526020600020906003020160405180608001604052908160008201805461020c90610879565b80601f016020809104026020016040519081016040528092919081815260200182805461023890610879565b80156102855780601f1061025a57610100808354040283529160200191610285565b820191906000526020600020905b81548152906001019060200180831161026857829003601f168201915b50505050508152602001600182015481526020016002820160009054906101000a900473ffffffffffffffffffffffffffffffffffffffff1673ffffffffffffffffffffffffffffffffffffffff1673ffffffffffffffffffffffffffffffffffffffff1681526020016002820160149054906101000a900460f81b7effffffffffffffffffffffffffffffffffffffffffffffffffffffffffffff19167effffffffffffffffffffffffffffffffffffffffffffffffffffffffffffff191681525050815260200190600101906101d9565b50505050905090565b82805461036d90610879565b90600052602060002090601f01602090048101928261038f57600085556103d6565b82601f106103a857805160ff19168380011785556103d6565b828001600101855582156103d6579182015b828111156103d55782518255916020019190600101906103ba565b5b5090506103e391906103e7565b5090565b5b808211156104005760008160009055506001016103e8565b5090565b6000604051905090565b600080fd5b600080fd5b600080fd5b600080fd5b6000601f19601f8301169050919050565b7f4e487b7100000000000000000000000000000000000000000000000000000000600052604160045260246000fd5b61046b82610422565b810181811067ffffffffffffffff8211171561048a57610489610433565b5b80604052505050565b600061049d610404565b90506104a98282610462565b919050565b600067ffffffffffffffff8211156104c9576104c8610433565b5b6104d282610422565b9050602081019050919050565b82818337600083830152505050565b60006105016104fc846104ae565b610493565b90508281526020810184848401111561051d5761051c61041d565b5b6105288482856104df565b509392505050565b600082601f83011261054557610544610418565b5b81356105558482602086016104ee565b91505092915050565b6000819050919050565b6105718161055e565b811461057c57600080fd5b50565b60008135905061058e81610568565b92915050565b600080604083850312156105ab576105aa61040e565b5b600083013567ffffffffffffffff8111156105c9576105c8610413565b5b6105d585828601610530565b92505060206105e68582860161057f565b9150509250929050565b600081519050919050565b600082825260208201905092915050565b6000819050602082019050919050565b600081519050919050565b600082825260208201905092915050565b60005b8381101561065657808201518184015260208101905061063b565b83811115610665576000848401525b50505050565b60006106768261061c565b6106808185610627565b9350610690818560208601610638565b61069981610422565b840191505092915050565b6106ad8161055e565b82525050565b600073ffffffffffffffffffffffffffffffffffffffff82169050919050565b60006106de826106b3565b9050919050565b6106ee816106d3565b82525050565b60007fff0000000000000000000000000000000000000000000000000000000000000082169050919050565b610729816106f4565b82525050565b6000608083016000830151848203600086015261074c828261066b565b915050602083015161076160208601826106a4565b50604083015161077460408601826106e5565b5060608301516107876060860182610720565b508091505092915050565b600061079e838361072f565b905092915050565b6000602082019050919050565b60006107be826105f0565b6107c881856105fb565b9350836020820285016107da8561060c565b8060005b8581101561081657848403895281516107f78582610792565b9450610802836107a6565b925060208a019950506001810190506107de565b50829750879550505050505092915050565b6000602082019050818103600083015261084281846107b3565b905092915050565b7f4e487b7100000000000000000000000000000000000000000000000000000000600052602260045260246000fd5b6000600282049050600182168061089157607f821691505b602082108114156108a5576108a461084a565b5b5091905056fea26469706673582212209953977a066777f0e55c4ee1168c5b07a86d58d6d4daadccb07c341d578278e864736f6c634300080a0033",
  "immutableReferences": {},
  "source": "// SPDX-License-Identifier: MIT\r\npragma solidity >=0.4.22 <0.9.0;\r\n\r\n\r\n\r\n\r\ncontract Item {\r\n    address owner;\r\n\r\n    struct Product{\r\n    string title ;\r\n    uint itemPrice ;\r\n    address payable buyerAddress ;\r\n    bytes1 availableStatus ;\r\n    }\r\n\r\n    Product[] productData;  //product Array -dynamic\r\n\r\n    constructor () {\r\n        owner=msg.sender; //owner\r\n    }\r\n\r\n    function addItem(string memory _title,uint _price) public{\r\n        Product memory temp=Product(_title,_price,payable(0),'A');  \r\n        productData.push(temp);\r\n    }\r\n\r\n    function getItem() public view returns(Product[] memory) {\r\n        return  productData;\r\n    }\r\n\r\n\r\n}",
  "sourcePath": "F:\\product\\contracts\\Item.sol",
  "compiler": {
    "name": "solc",
    "version": "0.8.10+commit.fc410830.Emscripten.clang"
  },
  "schemaVersion": "3.4.3",
  "updatedAt": "2021-12-11T22:42:47.647Z",
  "devdoc": {
    "kind": "dev",
    "methods": {},
    "version": 1
  },
  "userdoc": {
    "kind": "user",
    "methods": {},
    "version": 1
  }
}